{
  "contractName": "Asset",
  "abi": [
    {
      "inputs": [],
      "stateMutability": "nonpayable",
      "type": "constructor"
    },
    {
      "inputs": [],
      "name": "creatorAdmin",
      "outputs": [
        {
          "internalType": "address",
          "name": "",
          "type": "address"
        }
      ],
      "stateMutability": "view",
      "type": "function",
      "constant": true
    },
    {
      "inputs": [
        {
          "internalType": "uint256",
          "name": "",
          "type": "uint256"
        }
      ],
      "name": "propOwnerChange",
      "outputs": [
        {
          "internalType": "address",
          "name": "",
          "type": "address"
        }
      ],
      "stateMutability": "view",
      "type": "function",
      "constant": true
    },
    {
      "inputs": [
        {
          "internalType": "uint256",
          "name": "",
          "type": "uint256"
        }
      ],
      "name": "properties",
      "outputs": [
        {
          "internalType": "enum Asset.Status",
          "name": "status",
          "type": "uint8"
        },
        {
          "internalType": "uint256",
          "name": "value",
          "type": "uint256"
        },
        {
          "internalType": "address",
          "name": "currOwner",
          "type": "address"
        }
      ],
      "stateMutability": "view",
      "type": "function",
      "constant": true
    },
    {
      "inputs": [
        {
          "internalType": "address",
          "name": "",
          "type": "address"
        }
      ],
      "name": "userRoles",
      "outputs": [
        {
          "internalType": "enum Asset.Role",
          "name": "",
          "type": "uint8"
        }
      ],
      "stateMutability": "view",
      "type": "function",
      "constant": true
    },
    {
      "inputs": [
        {
          "internalType": "address",
          "name": "",
          "type": "address"
        }
      ],
      "name": "verifiedUsers",
      "outputs": [
        {
          "internalType": "bool",
          "name": "",
          "type": "bool"
        }
      ],
      "stateMutability": "view",
      "type": "function",
      "constant": true
    },
    {
      "inputs": [
        {
          "internalType": "uint256",
          "name": "_propId",
          "type": "uint256"
        },
        {
          "internalType": "uint256",
          "name": "_value",
          "type": "uint256"
        },
        {
          "internalType": "address",
          "name": "_owner",
          "type": "address"
        }
      ],
      "name": "createProperty",
      "outputs": [
        {
          "internalType": "bool",
          "name": "",
          "type": "bool"
        }
      ],
      "stateMutability": "nonpayable",
      "type": "function"
    },
    {
      "inputs": [
        {
          "internalType": "uint256",
          "name": "_propId",
          "type": "uint256"
        }
      ],
      "name": "approveProperty",
      "outputs": [
        {
          "internalType": "bool",
          "name": "",
          "type": "bool"
        }
      ],
      "stateMutability": "nonpayable",
      "type": "function"
    },
    {
      "inputs": [
        {
          "internalType": "uint256",
          "name": "_propId",
          "type": "uint256"
        }
      ],
      "name": "rejectProperty",
      "outputs": [
        {
          "internalType": "bool",
          "name": "",
          "type": "bool"
        }
      ],
      "stateMutability": "nonpayable",
      "type": "function"
    },
    {
      "inputs": [
        {
          "internalType": "uint256",
          "name": "_propId",
          "type": "uint256"
        },
        {
          "internalType": "address",
          "name": "_newOwner",
          "type": "address"
        }
      ],
      "name": "changeOwnership",
      "outputs": [
        {
          "internalType": "bool",
          "name": "",
          "type": "bool"
        }
      ],
      "stateMutability": "nonpayable",
      "type": "function"
    },
    {
      "inputs": [
        {
          "internalType": "uint256",
          "name": "_propId",
          "type": "uint256"
        }
      ],
      "name": "approveChangeOwnership",
      "outputs": [
        {
          "internalType": "bool",
          "name": "",
          "type": "bool"
        }
      ],
      "stateMutability": "nonpayable",
      "type": "function"
    },
    {
      "inputs": [
        {
          "internalType": "uint256",
          "name": "_propId",
          "type": "uint256"
        },
        {
          "internalType": "uint256",
          "name": "_newValue",
          "type": "uint256"
        }
      ],
      "name": "changeValue",
      "outputs": [
        {
          "internalType": "bool",
          "name": "",
          "type": "bool"
        }
      ],
      "stateMutability": "nonpayable",
      "type": "function"
    },
    {
      "inputs": [
        {
          "internalType": "uint256",
          "name": "_propId",
          "type": "uint256"
        }
      ],
      "name": "getPropertyDetails",
      "outputs": [
        {
          "internalType": "enum Asset.Status",
          "name": "",
          "type": "uint8"
        },
        {
          "internalType": "uint256",
          "name": "",
          "type": "uint256"
        },
        {
          "internalType": "address",
          "name": "",
          "type": "address"
        }
      ],
      "stateMutability": "view",
      "type": "function",
      "constant": true
    },
    {
      "inputs": [
        {
          "internalType": "address",
          "name": "_newUser",
          "type": "address"
        }
      ],
      "name": "addNewUser",
      "outputs": [
        {
          "internalType": "bool",
          "name": "",
          "type": "bool"
        }
      ],
      "stateMutability": "nonpayable",
      "type": "function"
    },
    {
      "inputs": [
        {
          "internalType": "address",
          "name": "_newAdmin",
          "type": "address"
        }
      ],
      "name": "addNewAdmin",
      "outputs": [
        {
          "internalType": "bool",
          "name": "",
          "type": "bool"
        }
      ],
      "stateMutability": "nonpayable",
      "type": "function"
    },
    {
      "inputs": [
        {
          "internalType": "address",
          "name": "_newSuperAdmin",
          "type": "address"
        }
      ],
      "name": "addNewSuperAdmin",
      "outputs": [
        {
          "internalType": "bool",
          "name": "",
          "type": "bool"
        }
      ],
      "stateMutability": "nonpayable",
      "type": "function"
    },
    {
      "inputs": [
        {
          "internalType": "address",
          "name": "_newUser",
          "type": "address"
        }
      ],
      "name": "approveUsers",
      "outputs": [
        {
          "internalType": "bool",
          "name": "",
          "type": "bool"
        }
      ],
      "stateMutability": "nonpayable",
      "type": "function"
    },
    {
      "inputs": [
        {
          "internalType": "address",
          "name": "_userAdd",
          "type": "address"
        }
      ],
      "name": "checkSuperAdmin",
      "outputs": [
        {
          "internalType": "bool",
          "name": "",
          "type": "bool"
        }
      ],
      "stateMutability": "view",
      "type": "function",
      "constant": true
    }
  ],
  "bytecode": "0x608060405234801561001057600080fd5b50336000806101000a81548173ffffffffffffffffffffffffffffffffffffffff021916908373ffffffffffffffffffffffffffffffffffffffff16021790555060038060008060009054906101000a900473ffffffffffffffffffffffffffffffffffffffff1673ffffffffffffffffffffffffffffffffffffffff1673ffffffffffffffffffffffffffffffffffffffff16815260200190815260200160002060006101000a81548160ff021916908360038111156100cd57fe5b02179055506001600460008060009054906101000a900473ffffffffffffffffffffffffffffffffffffffff1673ffffffffffffffffffffffffffffffffffffffff1673ffffffffffffffffffffffffffffffffffffffff16815260200190815260200160002060006101000a81548160ff021916908315150217905550611ab08061015a6000396000f3fe608060405234801561001057600080fd5b5060043610610128576000357c01000000000000000000000000000000000000000000000000000000009004806389b3887e116100bf578063c1d5e84f1161008e578063c1d5e84f14610559578063e35fe366146105b3578063e9b66f8c1461060d578063eeb294e214610651578063f7b108081461069557610128565b806389b3887e146103d55780639448f03d146104395780639c4ea46a146104a7578063a1d658b1146104ff57610128565b80634c82d0e4116100fb5780634c82d0e41461029657806374d5e100146102f05780637b855bf0146103535780638709b2e71461038757610128565b80630a1b10e11461012d578063126dbe431461018757806327983fcf146101f857806332282f8e1461023c575b600080fd5b61016f6004803603602081101561014357600080fd5b81019080803573ffffffffffffffffffffffffffffffffffffffff169060200190929190505050610706565b60405180821515815260200191505060405180910390f35b6101b36004803603602081101561019d57600080fd5b8101908080359060200190929190505050610901565b604051808460038111156101c357fe5b81526020018381526020018273ffffffffffffffffffffffffffffffffffffffff168152602001935050505060405180910390f35b6102246004803603602081101561020e57600080fd5b8101908080359060200190929190505050610985565b60405180821515815260200191505060405180910390f35b61027e6004803603602081101561025257600080fd5b81019080803573ffffffffffffffffffffffffffffffffffffffff169060200190929190505050610afa565b60405180821515815260200191505060405180910390f35b6102d8600480360360208110156102ac57600080fd5b81019080803573ffffffffffffffffffffffffffffffffffffffff169060200190929190505050610c90565b60405180821515815260200191505060405180910390f35b6103326004803603602081101561030657600080fd5b81019080803573ffffffffffffffffffffffffffffffffffffffff169060200190929190505050610e8a565b6040518082600381111561034257fe5b815260200191505060405180910390f35b61035b610eaa565b604051808273ffffffffffffffffffffffffffffffffffffffff16815260200191505060405180910390f35b6103bd6004803603604081101561039d57600080fd5b810190808035906020019092919080359060200190929190505050610ece565b60405180821515815260200191505060405180910390f35b610421600480360360408110156103eb57600080fd5b8101908080359060200190929190803573ffffffffffffffffffffffffffffffffffffffff169060200190929190505050610fd1565b60405180821515815260200191505060405180910390f35b61048f6004803603606081101561044f57600080fd5b810190808035906020019092919080359060200190929190803573ffffffffffffffffffffffffffffffffffffffff1690602001909291905050506111d2565b60405180821515815260200191505060405180910390f35b6104d3600480360360208110156104bd57600080fd5b81019080803590602001909291905050506113c9565b604051808273ffffffffffffffffffffffffffffffffffffffff16815260200191505060405180910390f35b6105416004803603602081101561051557600080fd5b81019080803573ffffffffffffffffffffffffffffffffffffffff1690602001909291905050506113fc565b60405180821515815260200191505060405180910390f35b61059b6004803603602081101561056f57600080fd5b81019080803573ffffffffffffffffffffffffffffffffffffffff16906020019092919050505061147b565b60405180821515815260200191505060405180910390f35b6105f5600480360360208110156105c957600080fd5b81019080803573ffffffffffffffffffffffffffffffffffffffff169060200190929190505050611678565b60405180821515815260200191505060405180910390f35b6106396004803603602081101561062357600080fd5b8101908080359060200190929190505050611698565b60405180821515815260200191505060405180910390f35b61067d6004803603602081101561066757600080fd5b810190808035906020019092919050505061180d565b60405180821515815260200191505060405180910390f35b6106c1600480360360208110156106ab57600080fd5b8101908080359060200190929190505050611a23565b604051808460038111156106d157fe5b81526020018381526020018273ffffffffffffffffffffffffffffffffffffffff168152602001935050505060405180910390f35b600060038081111561071457fe5b600360003373ffffffffffffffffffffffffffffffffffffffff1673ffffffffffffffffffffffffffffffffffffffff16815260200190815260200160002060009054906101000a900460ff16600381111561076c57fe5b1480156107c25750600460003373ffffffffffffffffffffffffffffffffffffffff1673ffffffffffffffffffffffffffffffffffffffff16815260200190815260200160002060009054906101000a900460ff165b6107cb57600080fd5b600060038111156107d857fe5b600360008473ffffffffffffffffffffffffffffffffffffffff1673ffffffffffffffffffffffffffffffffffffffff16815260200190815260200160002060009054906101000a900460ff16600381111561083057fe5b1461083a57600080fd5b60001515600460008473ffffffffffffffffffffffffffffffffffffffff1673ffffffffffffffffffffffffffffffffffffffff16815260200190815260200160002060009054906101000a900460ff1615151461089757600080fd5b6002600360008473ffffffffffffffffffffffffffffffffffffffff1673ffffffffffffffffffffffffffffffffffffffff16815260200190815260200160002060006101000a81548160ff021916908360038111156108f357fe5b021790555060019050919050565b60008060006001600085815260200190815260200160002060000160009054906101000a900460ff1660016000868152602001908152602001600020600101546001600087815260200190815260200160002060020160009054906101000a900473ffffffffffffffffffffffffffffffffffffffff169250925092509193909250565b600060038081111561099357fe5b600360003373ffffffffffffffffffffffffffffffffffffffff1673ffffffffffffffffffffffffffffffffffffffff16815260200190815260200160002060009054906101000a900460ff1660038111156109eb57fe5b148015610a415750600460003373ffffffffffffffffffffffffffffffffffffffff1673ffffffffffffffffffffffffffffffffffffffff16815260200190815260200160002060009054906101000a900460ff165b610a4a57600080fd5b3373ffffffffffffffffffffffffffffffffffffffff166001600084815260200190815260200160002060020160009054906101000a900473ffffffffffffffffffffffffffffffffffffffff1673ffffffffffffffffffffffffffffffffffffffff161415610ab957600080fd5b60036001600084815260200190815260200160002060000160006101000a81548160ff02191690836003811115610aec57fe5b021790555060019050919050565b6000600380811115610b0857fe5b600360003373ffffffffffffffffffffffffffffffffffffffff1673ffffffffffffffffffffffffffffffffffffffff16815260200190815260200160002060009054906101000a900460ff166003811115610b6057fe5b148015610bb65750600460003373ffffffffffffffffffffffffffffffffffffffff1673ffffffffffffffffffffffffffffffffffffffff16815260200190815260200160002060009054906101000a900460ff165b610bbf57600080fd5b60006003811115610bcc57fe5b600360008473ffffffffffffffffffffffffffffffffffffffff1673ffffffffffffffffffffffffffffffffffffffff16815260200190815260200160002060009054906101000a900460ff166003811115610c2457fe5b1415610c2f57600080fd5b6001600460008473ffffffffffffffffffffffffffffffffffffffff1673ffffffffffffffffffffffffffffffffffffffff16815260200190815260200160002060006101000a81548160ff02191690831515021790555060019050919050565b6000600380811115610c9e57fe5b600360003373ffffffffffffffffffffffffffffffffffffffff1673ffffffffffffffffffffffffffffffffffffffff16815260200190815260200160002060009054906101000a900460ff166003811115610cf657fe5b148015610d4c5750600460003373ffffffffffffffffffffffffffffffffffffffff1673ffffffffffffffffffffffffffffffffffffffff16815260200190815260200160002060009054906101000a900460ff165b610d5557600080fd5b60006003811115610d6257fe5b600360008473ffffffffffffffffffffffffffffffffffffffff1673ffffffffffffffffffffffffffffffffffffffff16815260200190815260200160002060009054906101000a900460ff166003811115610dba57fe5b14610dc457600080fd5b60001515600460008473ffffffffffffffffffffffffffffffffffffffff1673ffffffffffffffffffffffffffffffffffffffff16815260200190815260200160002060009054906101000a900460ff16151514610e2157600080fd5b60038060008473ffffffffffffffffffffffffffffffffffffffff1673ffffffffffffffffffffffffffffffffffffffff16815260200190815260200160002060006101000a81548160ff02191690836003811115610e7c57fe5b021790555060019050919050565b60036020528060005260406000206000915054906101000a900460ff1681565b60008054906101000a900473ffffffffffffffffffffffffffffffffffffffff1681565b6000823373ffffffffffffffffffffffffffffffffffffffff166001600083815260200190815260200160002060020160009054906101000a900473ffffffffffffffffffffffffffffffffffffffff1673ffffffffffffffffffffffffffffffffffffffff1614610f3f57600080fd5b600073ffffffffffffffffffffffffffffffffffffffff166002600086815260200190815260200160002060009054906101000a900473ffffffffffffffffffffffffffffffffffffffff1673ffffffffffffffffffffffffffffffffffffffff1614610fab57600080fd5b826001600086815260200190815260200160002060010181905550600191505092915050565b6000823373ffffffffffffffffffffffffffffffffffffffff166001600083815260200190815260200160002060020160009054906101000a900473ffffffffffffffffffffffffffffffffffffffff1673ffffffffffffffffffffffffffffffffffffffff161461104257600080fd5b82600460008273ffffffffffffffffffffffffffffffffffffffff1673ffffffffffffffffffffffffffffffffffffffff16815260200190815260200160002060009054906101000a900460ff1661109957600080fd5b8373ffffffffffffffffffffffffffffffffffffffff166001600087815260200190815260200160002060020160009054906101000a900473ffffffffffffffffffffffffffffffffffffffff1673ffffffffffffffffffffffffffffffffffffffff16141561110857600080fd5b600073ffffffffffffffffffffffffffffffffffffffff166002600087815260200190815260200160002060009054906101000a900473ffffffffffffffffffffffffffffffffffffffff1673ffffffffffffffffffffffffffffffffffffffff161461117457600080fd5b836002600087815260200190815260200160002060006101000a81548173ffffffffffffffffffffffffffffffffffffffff021916908373ffffffffffffffffffffffffffffffffffffffff16021790555060019250505092915050565b6000600260038111156111e157fe5b600360003373ffffffffffffffffffffffffffffffffffffffff1673ffffffffffffffffffffffffffffffffffffffff16815260200190815260200160002060009054906101000a900460ff16600381111561123957fe5b101580156112905750600460003373ffffffffffffffffffffffffffffffffffffffff1673ffffffffffffffffffffffffffffffffffffffff16815260200190815260200160002060009054906101000a900460ff165b61129957600080fd5b81600460008273ffffffffffffffffffffffffffffffffffffffff1673ffffffffffffffffffffffffffffffffffffffff16815260200190815260200160002060009054906101000a900460ff166112f057600080fd5b60405180606001604052806001600381111561130857fe5b81526020018581526020018473ffffffffffffffffffffffffffffffffffffffff168152506001600087815260200190815260200160002060008201518160000160006101000a81548160ff0219169083600381111561136457fe5b02179055506020820151816001015560408201518160020160006101000a81548173ffffffffffffffffffffffffffffffffffffffff021916908373ffffffffffffffffffffffffffffffffffffffff16021790555090505060019150509392505050565b60026020528060005260406000206000915054906101000a900473ffffffffffffffffffffffffffffffffffffffff1681565b600060038081111561140a57fe5b600360008473ffffffffffffffffffffffffffffffffffffffff1673ffffffffffffffffffffffffffffffffffffffff16815260200190815260200160002060009054906101000a900460ff16600381111561146257fe5b14156114715760019050611476565b600090505b919050565b60006002600381111561148a57fe5b600360003373ffffffffffffffffffffffffffffffffffffffff1673ffffffffffffffffffffffffffffffffffffffff16815260200190815260200160002060009054906101000a900460ff1660038111156114e257fe5b101580156115395750600460003373ffffffffffffffffffffffffffffffffffffffff1673ffffffffffffffffffffffffffffffffffffffff16815260200190815260200160002060009054906101000a900460ff165b61154257600080fd5b6000600381111561154f57fe5b600360008473ffffffffffffffffffffffffffffffffffffffff1673ffffffffffffffffffffffffffffffffffffffff16815260200190815260200160002060009054906101000a900460ff1660038111156115a757fe5b146115b157600080fd5b60001515600460008473ffffffffffffffffffffffffffffffffffffffff1673ffffffffffffffffffffffffffffffffffffffff16815260200190815260200160002060009054906101000a900460ff1615151461160e57600080fd5b6001600360008473ffffffffffffffffffffffffffffffffffffffff1673ffffffffffffffffffffffffffffffffffffffff16815260200190815260200160002060006101000a81548160ff0219169083600381111561166a57fe5b021790555060019050919050565b60046020528060005260406000206000915054906101000a900460ff1681565b60006003808111156116a657fe5b600360003373ffffffffffffffffffffffffffffffffffffffff1673ffffffffffffffffffffffffffffffffffffffff16815260200190815260200160002060009054906101000a900460ff1660038111156116fe57fe5b1480156117545750600460003373ffffffffffffffffffffffffffffffffffffffff1673ffffffffffffffffffffffffffffffffffffffff16815260200190815260200160002060009054906101000a900460ff165b61175d57600080fd5b3373ffffffffffffffffffffffffffffffffffffffff166001600084815260200190815260200160002060020160009054906101000a900473ffffffffffffffffffffffffffffffffffffffff1673ffffffffffffffffffffffffffffffffffffffff1614156117cc57600080fd5b60026001600084815260200190815260200160002060000160006101000a81548160ff021916908360038111156117ff57fe5b021790555060019050919050565b600060038081111561181b57fe5b600360003373ffffffffffffffffffffffffffffffffffffffff1673ffffffffffffffffffffffffffffffffffffffff16815260200190815260200160002060009054906101000a900460ff16600381111561187357fe5b1480156118c95750600460003373ffffffffffffffffffffffffffffffffffffffff1673ffffffffffffffffffffffffffffffffffffffff16815260200190815260200160002060009054906101000a900460ff165b6118d257600080fd5b600073ffffffffffffffffffffffffffffffffffffffff166002600084815260200190815260200160002060009054906101000a900473ffffffffffffffffffffffffffffffffffffffff1673ffffffffffffffffffffffffffffffffffffffff16141561193f57600080fd5b6002600083815260200190815260200160002060009054906101000a900473ffffffffffffffffffffffffffffffffffffffff166001600084815260200190815260200160002060020160006101000a81548173ffffffffffffffffffffffffffffffffffffffff021916908373ffffffffffffffffffffffffffffffffffffffff16021790555060006002600084815260200190815260200160002060006101000a81548173ffffffffffffffffffffffffffffffffffffffff021916908373ffffffffffffffffffffffffffffffffffffffff16021790555060019050919050565b60016020528060005260406000206000915090508060000160009054906101000a900460ff16908060010154908060020160009054906101000a900473ffffffffffffffffffffffffffffffffffffffff1690508356fea2646970667358221220d60eb19a4aee6f2cb35e28801c475db384e871f9122a61223a572763bad7f34164736f6c63430007000033",
  "immutableReferences": {},
  "source": "// SPDX-License-Identifier: GPL-3.0\npragma solidity >=0.7.0 <0.9.0;\n\n/// @title Asset\n/// @dev Store & retrieve value of a property\n\ncontract Asset {\n    address public creatorAdmin;\n    enum Status {NotExist, Pending, Approved, Rejected}\n    enum Role {Visitor, User, Admin, SuperAdmin}\n\n    // Struct to store all property related details\n    struct PropertyDetail {\n        Status status;\n        uint256 value;\n        address currOwner;\n    }\n\n    mapping(uint256 => PropertyDetail) public properties; // Stores all properties propId -> property Detail\n    mapping(uint256 => address) public propOwnerChange; // Keeps track of property owner propId -> Owner Address\n    mapping(address => Role) public userRoles; // Keeps track of user roles\n    mapping(address => bool) public verifiedUsers; // Keeps track of verified user, userId -> verified (true / false)\n\n    // Modifier to ensure only the property owner access\n    // a specific property\n    modifier onlyOwner(uint256 _propId) {\n        require(properties[_propId].currOwner == msg.sender);\n        _;\n    }\n\n    // Modifier to ensure only the verified user access\n    // a specific property\n    modifier verifiedUser(address _user) {\n        require(verifiedUsers[_user]);\n        _;\n    }\n\n    // Modifier to ensure only the verified admin access a function\n    modifier verifiedAdmin() {\n        require(\n            userRoles[msg.sender] >= Role.Admin && verifiedUsers[msg.sender]\n        );\n        _;\n    }\n\n    // Modifier to ensure only the verified super admin admin access a function\n    modifier verifiedSuperAdmin() {\n        require(\n            userRoles[msg.sender] == Role.SuperAdmin &&\n                verifiedUsers[msg.sender]\n        );\n        _;\n    }\n\n    // Initializing the Contract.\n    constructor() public {\n        creatorAdmin = msg.sender;\n        userRoles[creatorAdmin] = Role.SuperAdmin;\n        verifiedUsers[creatorAdmin] = true;\n    }\n\n    /// @dev Function to create property\n    /// @param _propId Identifier for property\n    /// @param _value Property Price\n    /// @param _owner Ownwe address property\n    function createProperty(\n        uint256 _propId,\n        uint256 _value,\n        address _owner\n    ) external verifiedAdmin verifiedUser(_owner) returns (bool) {\n        properties[_propId] = PropertyDetail(Status.Pending, _value, _owner);\n        return true;\n    }\n\n    /// @dev Approve property\n    /// @param _propId Identifier for property\n    function approveProperty(uint256 _propId)\n        external\n        verifiedSuperAdmin\n        returns (bool)\n    {\n        require(properties[_propId].currOwner != msg.sender);\n        properties[_propId].status = Status.Approved;\n        return true;\n    }\n\n    /// @dev Function to reject property\n    /// @param _propId Identifier for property\n    function rejectProperty(uint256 _propId)\n        external\n        verifiedSuperAdmin\n        returns (bool)\n    {\n        require(properties[_propId].currOwner != msg.sender);\n        properties[_propId].status = Status.Rejected;\n        return true;\n    }\n\n    /// @dev Function to change property ownership\n    /// @param _propId Identifier for property\n    /// @param _newOwner new Owner address for property\n    function changeOwnership(uint256 _propId, address _newOwner)\n        external\n        onlyOwner(_propId)\n        verifiedUser(_newOwner)\n        returns (bool)\n    {\n        require(properties[_propId].currOwner != _newOwner);\n        require(propOwnerChange[_propId] == address(0));\n        propOwnerChange[_propId] = _newOwner;\n        return true;\n    }\n\n    /// @dev Function to approve change of ownership\n    /// @param _propId Identifier for property\n    function approveChangeOwnership(uint256 _propId)\n        external\n        verifiedSuperAdmin\n        returns (bool)\n    {\n        require(propOwnerChange[_propId] != address(0));\n        properties[_propId].currOwner = propOwnerChange[_propId];\n        propOwnerChange[_propId] = address(0);\n        return true;\n    }\n\n    /// @dev Function to change property value\n    /// @param _propId Identifier for property\n    /// @param _newValue New Property Price\n    function changeValue(uint256 _propId, uint256 _newValue)\n        external\n        onlyOwner(_propId)\n        returns (bool)\n    {\n        require(propOwnerChange[_propId] == address(0));\n        properties[_propId].value = _newValue;\n        return true;\n    }\n\n    /// @dev Function to create property\n    /// @param _propId Identifier for property\n    function getPropertyDetails(uint256 _propId)\n        public\n        view\n        returns (\n            Status,\n            uint256,\n            address\n        )\n    {\n        return (\n            properties[_propId].status,\n            properties[_propId].value,\n            properties[_propId].currOwner\n        );\n    }\n\n    /// @dev Function to add a new user\n    /// @param _newUser new user address\n    function addNewUser(address _newUser)\n        external\n        verifiedAdmin\n        returns (bool)\n    {\n        require(userRoles[_newUser] == Role.Visitor);\n        require(verifiedUsers[_newUser] == false);\n        userRoles[_newUser] = Role.User;\n        return true;\n    }\n\n    /// @dev Function to add a new admin\n    /// @param _newAdmin new admin user address\n    function addNewAdmin(address _newAdmin)\n        external\n        verifiedSuperAdmin\n        returns (bool)\n    {\n        require(userRoles[_newAdmin] == Role.Visitor);\n        require(verifiedUsers[_newAdmin] == false);\n        userRoles[_newAdmin] = Role.Admin;\n        return true;\n    }\n\n    /// @dev Function to add a new admin\n    /// @param _newSuperAdmin new super admin user address\n    function addNewSuperAdmin(address _newSuperAdmin)\n        external\n        verifiedSuperAdmin\n        returns (bool)\n    {\n        require(userRoles[_newSuperAdmin] == Role.Visitor);\n        require(verifiedUsers[_newSuperAdmin] == false);\n        userRoles[_newSuperAdmin] = Role.SuperAdmin;\n        return true;\n    }\n\n    /// @dev Function to add a new admin\n    /// @param _newUser user address to approve\n    function approveUsers(address _newUser)\n        external\n        verifiedSuperAdmin\n        returns (bool)\n    {\n        require(userRoles[_newUser] != Role.Visitor);\n        verifiedUsers[_newUser] = true;\n        return true;\n    }\n\n    /// @dev Function to return role\n    /// @param _userAdd user address\n    function checkSuperAdmin(address _userAdd)\n        public\n        view\n        returns (bool)\n    {\n        if(userRoles[_userAdd] == Role.SuperAdmin)\n        {\n            return true;\n        }\n        else{\n            return false;\n        }\n    }\n\n}\n",
  "sourcePath": "/Users/aryanarora/Documents/Property-Registry/contracts/Asset.sol",
  "compiler": {
    "name": "solc",
    "version": "0.7.0+commit.9e61f92b.Linux.g++"
  },
  "schemaVersion": "3.4.7",
  "updatedAt": "2022-06-12T18:31:49.233Z",
  "networkType": "ethereum",
  "devdoc": {
    "details": "Store & retrieve value of a property",
    "kind": "dev",
    "methods": {
      "addNewAdmin(address)": {
        "details": "Function to add a new admin",
        "params": {
          "_newAdmin": "new admin user address"
        }
      },
      "addNewSuperAdmin(address)": {
        "details": "Function to add a new admin",
        "params": {
          "_newSuperAdmin": "new super admin user address"
        }
      },
      "addNewUser(address)": {
        "details": "Function to add a new user",
        "params": {
          "_newUser": "new user address"
        }
      },
      "approveChangeOwnership(uint256)": {
        "details": "Function to approve change of ownership",
        "params": {
          "_propId": "Identifier for property"
        }
      },
      "approveProperty(uint256)": {
        "details": "Approve property",
        "params": {
          "_propId": "Identifier for property"
        }
      },
      "approveUsers(address)": {
        "details": "Function to add a new admin",
        "params": {
          "_newUser": "user address to approve"
        }
      },
      "changeOwnership(uint256,address)": {
        "details": "Function to change property ownership",
        "params": {
          "_newOwner": "new Owner address for property",
          "_propId": "Identifier for property"
        }
      },
      "changeValue(uint256,uint256)": {
        "details": "Function to change property value",
        "params": {
          "_newValue": "New Property Price",
          "_propId": "Identifier for property"
        }
      },
      "checkSuperAdmin(address)": {
        "details": "Function to return role",
        "params": {
          "_userAdd": "user address"
        }
      },
      "createProperty(uint256,uint256,address)": {
        "details": "Function to create property",
        "params": {
          "_owner": "Ownwe address property",
          "_propId": "Identifier for property",
          "_value": "Property Price"
        }
      },
      "getPropertyDetails(uint256)": {
        "details": "Function to create property",
        "params": {
          "_propId": "Identifier for property"
        }
      },
      "rejectProperty(uint256)": {
        "details": "Function to reject property",
        "params": {
          "_propId": "Identifier for property"
        }
      }
    },
    "title": "Asset",
    "version": 1
  },
  "userdoc": {
    "kind": "user",
    "methods": {},
    "version": 1
  }
}